{
  "contractName": "PatientRegistrar",
  "abi": [
    {
      "constant": true,
      "inputs": [
        {
          "name": "",
          "type": "address"
        }
      ],
      "name": "patients",
      "outputs": [
        {
          "name": "yearOfBirth",
          "type": "uint256"
        },
        {
          "name": "gender",
          "type": "string"
        },
        {
          "name": "isInitialized",
          "type": "bool"
        }
      ],
      "payable": false,
      "stateMutability": "view",
      "type": "function"
    },
    {
      "constant": true,
      "inputs": [
        {
          "name": "",
          "type": "uint256"
        }
      ],
      "name": "patientList",
      "outputs": [
        {
          "name": "yearOfBirth",
          "type": "uint256"
        },
        {
          "name": "gender",
          "type": "string"
        },
        {
          "name": "isInitialized",
          "type": "bool"
        }
      ],
      "payable": false,
      "stateMutability": "view",
      "type": "function"
    },
    {
      "constant": true,
      "inputs": [],
      "name": "admin",
      "outputs": [
        {
          "name": "",
          "type": "address"
        }
      ],
      "payable": false,
      "stateMutability": "view",
      "type": "function"
    },
    {
      "inputs": [],
      "payable": false,
      "stateMutability": "nonpayable",
      "type": "constructor"
    },
    {
      "constant": false,
      "inputs": [
        {
          "name": "patient",
          "type": "address"
        },
        {
          "name": "gender",
          "type": "string"
        },
        {
          "name": "yearOfBirth",
          "type": "uint256"
        }
      ],
      "name": "registerPatientToRegistrar",
      "outputs": [],
      "payable": false,
      "stateMutability": "nonpayable",
      "type": "function"
    },
    {
      "constant": true,
      "inputs": [],
      "name": "viewPatientsList",
      "outputs": [
        {
          "components": [
            {
              "name": "yearOfBirth",
              "type": "uint256"
            },
            {
              "name": "gender",
              "type": "string"
            },
            {
              "name": "isInitialized",
              "type": "bool"
            }
          ],
          "name": "_patients",
          "type": "tuple[]"
        }
      ],
      "payable": false,
      "stateMutability": "view",
      "type": "function"
    }
  ],
  "bytecode": "0x608060405234801561001057600080fd5b50336000806101000a81548173ffffffffffffffffffffffffffffffffffffffff021916908373ffffffffffffffffffffffffffffffffffffffff160217905550610b69806100606000396000f30060806040526004361061006d576000357c0100000000000000000000000000000000000000000000000000000000900463ffffffff1680630869cfbc146100725780637106f03d146100b157806393e4b4cd146100dc578063babb1d4114610105578063f851a44014610144575b600080fd5b34801561007e57600080fd5b506100996004803603610094919081019061079e565b61016f565b6040516100a8939291906109b5565b60405180910390f35b3480156100bd57600080fd5b506100c661023e565b6040516100d39190610993565b60405180910390f35b3480156100e857600080fd5b5061010360048036036100fe91908101906107c7565b610365565b005b34801561011157600080fd5b5061012c6004803603610127919081019061082e565b6104f8565b60405161013b939291906109b5565b60405180910390f35b34801561015057600080fd5b506101596105d6565b6040516101669190610978565b60405180910390f35b6001602052806000526040600020600091509050806000015490806001018054600181600116156101000203166002900480601f0160208091040260200160405190810160405280929190818152602001828054600181600116156101000203166002900480156102215780601f106101f657610100808354040283529160200191610221565b820191906000526020600020905b81548152906001019060200180831161020457829003601f168201915b5050505050908060020160009054906101000a900460ff16905083565b60606002805480602002602001604051908101604052809291908181526020016000905b8282101561035c57838290600052602060002090600302016060604051908101604052908160008201548152602001600182018054600181600116156101000203166002900480601f0160208091040260200160405190810160405280929190818152602001828054600181600116156101000203166002900480156103295780601f106102fe57610100808354040283529160200191610329565b820191906000526020600020905b81548152906001019060200180831161030c57829003601f168201915b505050505081526020016002820160009054906101000a900460ff16151515158152505081526020019060010190610262565b50505050905090565b81600160008573ffffffffffffffffffffffffffffffffffffffff1673ffffffffffffffffffffffffffffffffffffffff16815260200190815260200160002060010190805190602001906103bb9291906105fb565b5080600160008573ffffffffffffffffffffffffffffffffffffffff1673ffffffffffffffffffffffffffffffffffffffff1681526020019081526020016000206000018190555060018060008573ffffffffffffffffffffffffffffffffffffffff1673ffffffffffffffffffffffffffffffffffffffff16815260200190815260200160002060020160006101000a81548160ff021916908315150217905550600260606040519081016040528083815260200184815260200160011515815250908060018154018082558091505090600182039060005260206000209060030201600090919290919091506000820151816000015560208201518160010190805190602001906104cf92919061067b565b5060408201518160020160006101000a81548160ff021916908315150217905550505050505050565b60028181548110151561050757fe5b9060005260206000209060030201600091509050806000015490806001018054600181600116156101000203166002900480601f0160208091040260200160405190810160405280929190818152602001828054600181600116156101000203166002900480156105b95780601f1061058e576101008083540402835291602001916105b9565b820191906000526020600020905b81548152906001019060200180831161059c57829003601f168201915b5050505050908060020160009054906101000a900460ff16905083565b6000809054906101000a900473ffffffffffffffffffffffffffffffffffffffff1681565b828054600181600116156101000203166002900490600052602060002090601f016020900481019282601f1061063c57805160ff191683800117855561066a565b8280016001018555821561066a579182015b8281111561066957825182559160200191906001019061064e565b5b50905061067791906106fb565b5090565b828054600181600116156101000203166002900490600052602060002090601f016020900481019282601f106106bc57805160ff19168380011785556106ea565b828001600101855582156106ea579182015b828111156106e95782518255916020019190600101906106ce565b5b5090506106f791906106fb565b5090565b61071d91905b80821115610719576000816000905550600101610701565b5090565b90565b600061072c8235610ab2565b905092915050565b600082601f830112151561074757600080fd5b813561075a61075582610a20565b6109f3565b9150808252602083016020830185838301111561077657600080fd5b610781838284610adc565b50505092915050565b60006107968235610ad2565b905092915050565b6000602082840312156107b057600080fd5b60006107be84828501610720565b91505092915050565b6000806000606084860312156107dc57600080fd5b60006107ea86828701610720565b935050602084013567ffffffffffffffff81111561080757600080fd5b61081386828701610734565b92505060406108248682870161078a565b9150509250925092565b60006020828403121561084057600080fd5b600061084e8482850161078a565b91505092915050565b61086081610a7c565b82525050565b600061087182610a59565b8084526020840193508360208202850161088a85610a4c565b60005b848110156108c35783830388526108a5838351610919565b92506108b082610a6f565b915060208801975060018101905061088d565b508196508694505050505092915050565b6108dd81610a9c565b82525050565b60006108ee82610a64565b808452610902816020860160208601610aeb565b61090b81610b1e565b602085010191505092915050565b60006060830160008301516109316000860182610969565b506020830151848203602086015261094982826108e3565b915050604083015161095e60408601826108d4565b508091505092915050565b61097281610aa8565b82525050565b600060208201905061098d6000830184610857565b92915050565b600060208201905081810360008301526109ad8184610866565b905092915050565b60006060820190506109ca6000830186610969565b81810360208301526109dc81856108e3565b90506109eb60408301846108d4565b949350505050565b6000604051905081810181811067ffffffffffffffff82111715610a1657600080fd5b8060405250919050565b600067ffffffffffffffff821115610a3757600080fd5b601f19601f8301169050602081019050919050565b6000602082019050919050565b600081519050919050565b600081519050919050565b6000602082019050919050565b600073ffffffffffffffffffffffffffffffffffffffff82169050919050565b60008115159050919050565b6000819050919050565b600073ffffffffffffffffffffffffffffffffffffffff82169050919050565b6000819050919050565b82818337600083830152505050565b60005b83811015610b09578082015181840152602081019050610aee565b83811115610b18576000848401525b50505050565b6000601f19601f83011690509190505600a265627a7a72305820f57e286c5af435464ae411eae1c3c73aea8466af51ea4d1d3fc3099396fff4de6c6578706572696d656e74616cf50037",
  "source": "pragma solidity ^0.4.23;\npragma experimental ABIEncoderV2;\n\ncontract PatientRegistrar {\n    struct Patient {\n        uint yearOfBirth;\n        string gender;\n        bool isInitialized;\n    }\n\n    address public admin;\n    \n    mapping(address => Patient) public patients;\n    Patient[] public patientList;\n\n    constructor() public {\n        admin = msg.sender;\n    }\n\n    function registerPatientToRegistrar(address patient, string gender, uint yearOfBirth) public {\n        /*\n        require(\n            msg.sender == admin,\n            \"Only admin can add patient to network\"\n        );\n        */\n      \n        // require(\n        //     !patients[patient].isInitialized,\n        //     \"Patient already exists\"\n        // );\n        \n        patients[patient].gender = gender;\n        patients[patient].yearOfBirth = yearOfBirth;\n        patients[patient].isInitialized = true;\n        patientList.push(Patient({\n            gender: gender,\n            yearOfBirth: yearOfBirth,\n            isInitialized: true\n        }));\n    }\n\n    function viewPatientsList() public view returns (Patient[] _patients) {\n        _patients = patientList;\n    }\n}\n",
  "sourcePath": "/Users/paulsoh/Workspace/mcidl/contracts/contracts/PatientRegistrar.sol",
  "compiler": {
    "name": "solc",
    "version": "0.4.24+commit.e67f0147.Emscripten.clang"
  },
  "schemaVersion": "2.0.1",
  "updatedAt": "2018-07-31T22:07:21.537Z"
}